{
  "contractName": "Interactive",
  "abi": [
    {
      "inputs": [],
      "stateMutability": "nonpayable",
      "type": "constructor"
    },
    {
      "anonymous": false,
      "inputs": [
        {
          "indexed": true,
          "internalType": "address",
          "name": "owner",
          "type": "address"
        },
        {
          "indexed": true,
          "internalType": "address",
          "name": "approved",
          "type": "address"
        },
        {
          "indexed": true,
          "internalType": "uint256",
          "name": "tokenId",
          "type": "uint256"
        }
      ],
      "name": "Approval",
      "type": "event"
    },
    {
      "anonymous": false,
      "inputs": [
        {
          "indexed": true,
          "internalType": "address",
          "name": "owner",
          "type": "address"
        },
        {
          "indexed": true,
          "internalType": "address",
          "name": "operator",
          "type": "address"
        },
        {
          "indexed": false,
          "internalType": "bool",
          "name": "approved",
          "type": "bool"
        }
      ],
      "name": "ApprovalForAll",
      "type": "event"
    },
    {
      "anonymous": false,
      "inputs": [
        {
          "indexed": true,
          "internalType": "address",
          "name": "from",
          "type": "address"
        },
        {
          "indexed": true,
          "internalType": "address",
          "name": "to",
          "type": "address"
        },
        {
          "indexed": true,
          "internalType": "uint256",
          "name": "tokenId",
          "type": "uint256"
        }
      ],
      "name": "Transfer",
      "type": "event"
    },
    {
      "inputs": [
        {
          "internalType": "address",
          "name": "to",
          "type": "address"
        },
        {
          "internalType": "uint256",
          "name": "tokenId",
          "type": "uint256"
        }
      ],
      "name": "approve",
      "outputs": [],
      "stateMutability": "nonpayable",
      "type": "function"
    },
    {
      "inputs": [
        {
          "internalType": "address",
          "name": "owner",
          "type": "address"
        }
      ],
      "name": "balanceOf",
      "outputs": [
        {
          "internalType": "uint256",
          "name": "",
          "type": "uint256"
        }
      ],
      "stateMutability": "view",
      "type": "function",
      "constant": true
    },
    {
      "inputs": [
        {
          "internalType": "uint256",
          "name": "tokenId",
          "type": "uint256"
        }
      ],
      "name": "getApproved",
      "outputs": [
        {
          "internalType": "address",
          "name": "",
          "type": "address"
        }
      ],
      "stateMutability": "view",
      "type": "function",
      "constant": true
    },
    {
      "inputs": [
        {
          "internalType": "address",
          "name": "owner",
          "type": "address"
        },
        {
          "internalType": "address",
          "name": "operator",
          "type": "address"
        }
      ],
      "name": "isApprovedForAll",
      "outputs": [
        {
          "internalType": "bool",
          "name": "",
          "type": "bool"
        }
      ],
      "stateMutability": "view",
      "type": "function",
      "constant": true
    },
    {
      "inputs": [],
      "name": "name",
      "outputs": [
        {
          "internalType": "string",
          "name": "",
          "type": "string"
        }
      ],
      "stateMutability": "view",
      "type": "function",
      "constant": true
    },
    {
      "inputs": [
        {
          "internalType": "uint256",
          "name": "tokenId",
          "type": "uint256"
        }
      ],
      "name": "ownerOf",
      "outputs": [
        {
          "internalType": "address",
          "name": "",
          "type": "address"
        }
      ],
      "stateMutability": "view",
      "type": "function",
      "constant": true
    },
    {
      "inputs": [
        {
          "internalType": "address",
          "name": "from",
          "type": "address"
        },
        {
          "internalType": "address",
          "name": "to",
          "type": "address"
        },
        {
          "internalType": "uint256",
          "name": "tokenId",
          "type": "uint256"
        }
      ],
      "name": "safeTransferFrom",
      "outputs": [],
      "stateMutability": "nonpayable",
      "type": "function"
    },
    {
      "inputs": [
        {
          "internalType": "address",
          "name": "from",
          "type": "address"
        },
        {
          "internalType": "address",
          "name": "to",
          "type": "address"
        },
        {
          "internalType": "uint256",
          "name": "tokenId",
          "type": "uint256"
        },
        {
          "internalType": "bytes",
          "name": "_data",
          "type": "bytes"
        }
      ],
      "name": "safeTransferFrom",
      "outputs": [],
      "stateMutability": "nonpayable",
      "type": "function"
    },
    {
      "inputs": [
        {
          "internalType": "address",
          "name": "operator",
          "type": "address"
        },
        {
          "internalType": "bool",
          "name": "approved",
          "type": "bool"
        }
      ],
      "name": "setApprovalForAll",
      "outputs": [],
      "stateMutability": "nonpayable",
      "type": "function"
    },
    {
      "inputs": [
        {
          "internalType": "bytes4",
          "name": "interfaceId",
          "type": "bytes4"
        }
      ],
      "name": "supportsInterface",
      "outputs": [
        {
          "internalType": "bool",
          "name": "",
          "type": "bool"
        }
      ],
      "stateMutability": "view",
      "type": "function",
      "constant": true
    },
    {
      "inputs": [],
      "name": "symbol",
      "outputs": [
        {
          "internalType": "string",
          "name": "",
          "type": "string"
        }
      ],
      "stateMutability": "view",
      "type": "function",
      "constant": true
    },
    {
      "inputs": [
        {
          "internalType": "address",
          "name": "from",
          "type": "address"
        },
        {
          "internalType": "address",
          "name": "to",
          "type": "address"
        },
        {
          "internalType": "uint256",
          "name": "tokenId",
          "type": "uint256"
        }
      ],
      "name": "transferFrom",
      "outputs": [],
      "stateMutability": "nonpayable",
      "type": "function"
    },
    {
      "inputs": [
        {
          "internalType": "string",
          "name": "metadataURI",
          "type": "string"
        }
      ],
      "name": "mint",
      "outputs": [],
      "stateMutability": "payable",
      "type": "function",
      "payable": true
    },
    {
      "inputs": [
        {
          "internalType": "uint256",
          "name": "tokenId",
          "type": "uint256"
        }
      ],
      "name": "tokenURI",
      "outputs": [
        {
          "internalType": "string",
          "name": "",
          "type": "string"
        }
      ],
      "stateMutability": "view",
      "type": "function",
      "constant": true
    }
  ],
  "bytecode": "0x60806040523480156200001157600080fd5b506040518060400160405280600681526020017f536b756c6c7300000000000000000000000000000000000000000000000000008152506040518060400160405280600481526020017f534b554c00000000000000000000000000000000000000000000000000000000815250816000908051906020019062000096929190620000b8565b508060019080519060200190620000af929190620000b8565b505050620001cd565b828054620000c69062000197565b90600052602060002090601f016020900481019282620000ea576000855562000136565b82601f106200010557805160ff191683800117855562000136565b8280016001018555821562000136579182015b828111156200013557825182559160200191906001019062000118565b5b50905062000145919062000149565b5090565b5b80821115620001645760008160009055506001016200014a565b5090565b7f4e487b7100000000000000000000000000000000000000000000000000000000600052602260045260246000fd5b60006002820490506001821680620001b057607f821691505b60208210811415620001c757620001c662000168565b5b50919050565b61279680620001dd6000396000f3fe6080604052600436106100fa576000357c01000000000000000000000000000000000000000000000000000000009004806370a082311161009c578063b88d4fde11610076578063b88d4fde146102ed578063c87b56dd14610316578063d85d3d2714610353578063e985e9c51461036f576100fa565b806370a082311461025c57806395d89b4114610299578063a22cb465146102c4576100fa565b8063095ea7b3116100d8578063095ea7b3146101a457806323b872dd146101cd57806342842e0e146101f65780636352211e1461021f576100fa565b806301ffc9a7146100ff57806306fdde031461013c578063081812fc14610167575b600080fd5b34801561010b57600080fd5b5061012660048036038101906101219190611798565b6103ac565b60405161013391906117e0565b60405180910390f35b34801561014857600080fd5b5061015161048e565b60405161015e9190611894565b60405180910390f35b34801561017357600080fd5b5061018e600480360381019061018991906118ec565b610520565b60405161019b919061195a565b60405180910390f35b3480156101b057600080fd5b506101cb60048036038101906101c691906119a1565b6105a5565b005b3480156101d957600080fd5b506101f460048036038101906101ef91906119e1565b6106bd565b005b34801561020257600080fd5b5061021d600480360381019061021891906119e1565b61071d565b005b34801561022b57600080fd5b50610246600480360381019061024191906118ec565b61073d565b604051610253919061195a565b60405180910390f35b34801561026857600080fd5b50610283600480360381019061027e9190611a34565b6107ef565b6040516102909190611a70565b60405180910390f35b3480156102a557600080fd5b506102ae6108a7565b6040516102bb9190611894565b60405180910390f35b3480156102d057600080fd5b506102eb60048036038101906102e69190611ab7565b610939565b005b3480156102f957600080fd5b50610314600480360381019061030f9190611c2c565b61094f565b005b34801561032257600080fd5b5061033d600480360381019061033891906118ec565b6109b1565b60405161034a9190611894565b60405180910390f35b61036d60048036038101906103689190611d50565b610a9e565b005b34801561037b57600080fd5b5061039660048036038101906103919190611d99565b610aec565b6040516103a391906117e0565b60405180910390f35b60007f80ac58cd000000000000000000000000000000000000000000000000000000007bffffffffffffffffffffffffffffffffffffffffffffffffffffffff1916827bffffffffffffffffffffffffffffffffffffffffffffffffffffffff1916148061047757507f5b5e139f000000000000000000000000000000000000000000000000000000007bffffffffffffffffffffffffffffffffffffffffffffffffffffffff1916827bffffffffffffffffffffffffffffffffffffffffffffffffffffffff1916145b80610487575061048682610b80565b5b9050919050565b60606000805461049d90611e08565b80601f01602080910402602001604051908101604052809291908181526020018280546104c990611e08565b80156105165780601f106104eb57610100808354040283529160200191610516565b820191906000526020600020905b8154815290600101906020018083116104f957829003601f168201915b5050505050905090565b600061052b82610bea565b61056a576040517f08c379a000000000000000000000000000000000000000000000000000000000815260040161056190611eac565b60405180910390fd5b6004600083815260200190815260200160002060009054906101000a900473ffffffffffffffffffffffffffffffffffffffff169050919050565b60006105b08261073d565b90508073ffffffffffffffffffffffffffffffffffffffff168373ffffffffffffffffffffffffffffffffffffffff161415610621576040517f08c379a000000000000000000000000000000000000000000000000000000000815260040161061890611f3e565b60405180910390fd5b8073ffffffffffffffffffffffffffffffffffffffff16610640610c56565b73ffffffffffffffffffffffffffffffffffffffff16148061066f575061066e81610669610c56565b610aec565b5b6106ae576040517f08c379a00000000000000000000000000000000000000000000000000000000081526004016106a590611fd0565b60405180910390fd5b6106b88383610c5e565b505050565b6106ce6106c8610c56565b82610d17565b61070d576040517f08c379a000000000000000000000000000000000000000000000000000000000815260040161070490612062565b60405180910390fd5b610718838383610df5565b505050565b6107388383836040518060200160405280600081525061094f565b505050565b6000806002600084815260200190815260200160002060009054906101000a900473ffffffffffffffffffffffffffffffffffffffff169050600073ffffffffffffffffffffffffffffffffffffffff168173ffffffffffffffffffffffffffffffffffffffff1614156107e6576040517f08c379a00000000000000000000000000000000000000000000000000000000081526004016107dd906120f4565b60405180910390fd5b80915050919050565b60008073ffffffffffffffffffffffffffffffffffffffff168273ffffffffffffffffffffffffffffffffffffffff161415610860576040517f08c379a000000000000000000000000000000000000000000000000000000000815260040161085790612186565b60405180910390fd5b600360008373ffffffffffffffffffffffffffffffffffffffff1673ffffffffffffffffffffffffffffffffffffffff168152602001908152602001600020549050919050565b6060600180546108b690611e08565b80601f01602080910402602001604051908101604052809291908181526020018280546108e290611e08565b801561092f5780601f106109045761010080835404028352916020019161092f565b820191906000526020600020905b81548152906001019060200180831161091257829003601f168201915b5050505050905090565b61094b610944610c56565b838361105c565b5050565b61096061095a610c56565b83610d17565b61099f576040517f08c379a000000000000000000000000000000000000000000000000000000000815260040161099690612062565b60405180910390fd5b6109ab848484846111c9565b50505050565b60606109bc82610bea565b6109fb576040517f08c379a00000000000000000000000000000000000000000000000000000000081526004016109f290612218565b60405180910390fd5b600760008381526020019081526020016000208054610a1990611e08565b80601f0160208091040260200160405190810160405280929190818152602001828054610a4590611e08565b8015610a925780601f10610a6757610100808354040283529160200191610a92565b820191906000526020600020905b815481529060010190602001808311610a7557829003601f168201915b50505050509050919050565b610aa86006611225565b6000610ab4600661123b565b9050610ac03382611249565b81600760008381526020019081526020016000209080519060200190610ae7929190611689565b505050565b6000600560008473ffffffffffffffffffffffffffffffffffffffff1673ffffffffffffffffffffffffffffffffffffffff16815260200190815260200160002060008373ffffffffffffffffffffffffffffffffffffffff1673ffffffffffffffffffffffffffffffffffffffff16815260200190815260200160002060009054906101000a900460ff16905092915050565b60007f01ffc9a7000000000000000000000000000000000000000000000000000000007bffffffffffffffffffffffffffffffffffffffffffffffffffffffff1916827bffffffffffffffffffffffffffffffffffffffffffffffffffffffff1916149050919050565b60008073ffffffffffffffffffffffffffffffffffffffff166002600084815260200190815260200160002060009054906101000a900473ffffffffffffffffffffffffffffffffffffffff1673ffffffffffffffffffffffffffffffffffffffff1614159050919050565b600033905090565b816004600083815260200190815260200160002060006101000a81548173ffffffffffffffffffffffffffffffffffffffff021916908373ffffffffffffffffffffffffffffffffffffffff160217905550808273ffffffffffffffffffffffffffffffffffffffff16610cd18361073d565b73ffffffffffffffffffffffffffffffffffffffff167f8c5be1e5ebec7d5bd14f71427d1e84f3dd0314c0f7b2291e5b200ac8c7c3b92560405160405180910390a45050565b6000610d2282610bea565b610d61576040517f08c379a0000000000000000000000000000000000000000000000000000000008152600401610d58906122aa565b60405180910390fd5b6000610d6c8361073d565b90508073ffffffffffffffffffffffffffffffffffffffff168473ffffffffffffffffffffffffffffffffffffffff161480610ddb57508373ffffffffffffffffffffffffffffffffffffffff16610dc384610520565b73ffffffffffffffffffffffffffffffffffffffff16145b80610dec5750610deb8185610aec565b5b91505092915050565b8273ffffffffffffffffffffffffffffffffffffffff16610e158261073d565b73ffffffffffffffffffffffffffffffffffffffff1614610e6b576040517f08c379a0000000000000000000000000000000000000000000000000000000008152600401610e629061233c565b60405180910390fd5b600073ffffffffffffffffffffffffffffffffffffffff168273ffffffffffffffffffffffffffffffffffffffff161415610edb576040517f08c379a0000000000000000000000000000000000000000000000000000000008152600401610ed2906123ce565b60405180910390fd5b610ee6838383611267565b610ef1600082610c5e565b6001600360008573ffffffffffffffffffffffffffffffffffffffff1673ffffffffffffffffffffffffffffffffffffffff1681526020019081526020016000206000828254610f41919061241d565b925050819055506001600360008473ffffffffffffffffffffffffffffffffffffffff1673ffffffffffffffffffffffffffffffffffffffff1681526020019081526020016000206000828254610f989190612451565b92505081905550816002600083815260200190815260200160002060006101000a81548173ffffffffffffffffffffffffffffffffffffffff021916908373ffffffffffffffffffffffffffffffffffffffff160217905550808273ffffffffffffffffffffffffffffffffffffffff168473ffffffffffffffffffffffffffffffffffffffff167fddf252ad1be2c89b69c2b068fc378daa952ba7f163c4a11628f55a4df523b3ef60405160405180910390a461105783838361126c565b505050565b8173ffffffffffffffffffffffffffffffffffffffff168373ffffffffffffffffffffffffffffffffffffffff1614156110cb576040517f08c379a00000000000000000000000000000000000000000000000000000000081526004016110c2906124f3565b60405180910390fd5b80600560008573ffffffffffffffffffffffffffffffffffffffff1673ffffffffffffffffffffffffffffffffffffffff16815260200190815260200160002060008473ffffffffffffffffffffffffffffffffffffffff1673ffffffffffffffffffffffffffffffffffffffff16815260200190815260200160002060006101000a81548160ff0219169083151502179055508173ffffffffffffffffffffffffffffffffffffffff168373ffffffffffffffffffffffffffffffffffffffff167f17307eab39ab6107e8899845ad3d59bd9653f200f220920489ca2b5937696c31836040516111bc91906117e0565b60405180910390a3505050565b6111d4848484610df5565b6111e084848484611271565b61121f576040517f08c379a000000000000000000000000000000000000000000000000000000000815260040161121690612585565b60405180910390fd5b50505050565b6001816000016000828254019250508190555050565b600081600001549050919050565b611263828260405180602001604052806000815250611431565b5050565b505050565b505050565b60006112928473ffffffffffffffffffffffffffffffffffffffff1661148c565b15611424578373ffffffffffffffffffffffffffffffffffffffff1663150b7a026112bb610c56565b8786866040518563ffffffff167c01000000000000000000000000000000000000000000000000000000000281526004016112f994939291906125fa565b6020604051808303816000875af192505050801561133557506040513d601f19601f82011682018060405250810190611332919061265b565b60015b6113b8573d8060008114611365576040519150601f19603f3d011682016040523d82523d6000602084013e61136a565b606091505b506000815114156113b0576040517f08c379a00000000000000000000000000000000000000000000000000000000081526004016113a790612585565b60405180910390fd5b805181602001fd5b63150b7a027c0100000000000000000000000000000000000000000000000000000000027bffffffffffffffffffffffffffffffffffffffffffffffffffffffff1916817bffffffffffffffffffffffffffffffffffffffffffffffffffffffff191614915050611429565b600190505b949350505050565b61143b83836114af565b6114486000848484611271565b611487576040517f08c379a000000000000000000000000000000000000000000000000000000000815260040161147e90612585565b60405180910390fd5b505050565b6000808273ffffffffffffffffffffffffffffffffffffffff163b119050919050565b600073ffffffffffffffffffffffffffffffffffffffff168273ffffffffffffffffffffffffffffffffffffffff16141561151f576040517f08c379a0000000000000000000000000000000000000000000000000000000008152600401611516906126d4565b60405180910390fd5b61152881610bea565b15611568576040517f08c379a000000000000000000000000000000000000000000000000000000000815260040161155f90612740565b60405180910390fd5b61157460008383611267565b6001600360008473ffffffffffffffffffffffffffffffffffffffff1673ffffffffffffffffffffffffffffffffffffffff16815260200190815260200160002060008282546115c49190612451565b92505081905550816002600083815260200190815260200160002060006101000a81548173ffffffffffffffffffffffffffffffffffffffff021916908373ffffffffffffffffffffffffffffffffffffffff160217905550808273ffffffffffffffffffffffffffffffffffffffff16600073ffffffffffffffffffffffffffffffffffffffff167fddf252ad1be2c89b69c2b068fc378daa952ba7f163c4a11628f55a4df523b3ef60405160405180910390a46116856000838361126c565b5050565b82805461169590611e08565b90600052602060002090601f0160209004810192826116b757600085556116fe565b82601f106116d057805160ff19168380011785556116fe565b828001600101855582156116fe579182015b828111156116fd5782518255916020019190600101906116e2565b5b50905061170b919061170f565b5090565b5b80821115611728576000816000905550600101611710565b5090565b6000604051905090565b600080fd5b600080fd5b60007fffffffff0000000000000000000000000000000000000000000000000000000082169050919050565b61177581611740565b811461178057600080fd5b50565b6000813590506117928161176c565b92915050565b6000602082840312156117ae576117ad611736565b5b60006117bc84828501611783565b91505092915050565b60008115159050919050565b6117da816117c5565b82525050565b60006020820190506117f560008301846117d1565b92915050565b600081519050919050565b600082825260208201905092915050565b60005b8381101561183557808201518184015260208101905061181a565b83811115611844576000848401525b50505050565b6000601f19601f8301169050919050565b6000611866826117fb565b6118708185611806565b9350611880818560208601611817565b6118898161184a565b840191505092915050565b600060208201905081810360008301526118ae818461185b565b905092915050565b6000819050919050565b6118c9816118b6565b81146118d457600080fd5b50565b6000813590506118e6816118c0565b92915050565b60006020828403121561190257611901611736565b5b6000611910848285016118d7565b91505092915050565b600073ffffffffffffffffffffffffffffffffffffffff82169050919050565b600061194482611919565b9050919050565b61195481611939565b82525050565b600060208201905061196f600083018461194b565b92915050565b61197e81611939565b811461198957600080fd5b50565b60008135905061199b81611975565b92915050565b600080604083850312156119b8576119b7611736565b5b60006119c68582860161198c565b92505060206119d7858286016118d7565b9150509250929050565b6000806000606084860312156119fa576119f9611736565b5b6000611a088682870161198c565b9350506020611a198682870161198c565b9250506040611a2a868287016118d7565b9150509250925092565b600060208284031215611a4a57611a49611736565b5b6000611a588482850161198c565b91505092915050565b611a6a816118b6565b82525050565b6000602082019050611a856000830184611a61565b92915050565b611a94816117c5565b8114611a9f57600080fd5b50565b600081359050611ab181611a8b565b92915050565b60008060408385031215611ace57611acd611736565b5b6000611adc8582860161198c565b9250506020611aed85828601611aa2565b9150509250929050565b600080fd5b600080fd5b7f4e487b7100000000000000000000000000000000000000000000000000000000600052604160045260246000fd5b611b398261184a565b810181811067ffffffffffffffff82111715611b5857611b57611b01565b5b80604052505050565b6000611b6b61172c565b9050611b778282611b30565b919050565b600067ffffffffffffffff821115611b9757611b96611b01565b5b611ba08261184a565b9050602081019050919050565b82818337600083830152505050565b6000611bcf611bca84611b7c565b611b61565b905082815260208101848484011115611beb57611bea611afc565b5b611bf6848285611bad565b509392505050565b600082601f830112611c1357611c12611af7565b5b8135611c23848260208601611bbc565b91505092915050565b60008060008060808587031215611c4657611c45611736565b5b6000611c548782880161198c565b9450506020611c658782880161198c565b9350506040611c76878288016118d7565b925050606085013567ffffffffffffffff811115611c9757611c9661173b565b5b611ca387828801611bfe565b91505092959194509250565b600067ffffffffffffffff821115611cca57611cc9611b01565b5b611cd38261184a565b9050602081019050919050565b6000611cf3611cee84611caf565b611b61565b905082815260208101848484011115611d0f57611d0e611afc565b5b611d1a848285611bad565b509392505050565b600082601f830112611d3757611d36611af7565b5b8135611d47848260208601611ce0565b91505092915050565b600060208284031215611d6657611d65611736565b5b600082013567ffffffffffffffff811115611d8457611d8361173b565b5b611d9084828501611d22565b91505092915050565b60008060408385031215611db057611daf611736565b5b6000611dbe8582860161198c565b9250506020611dcf8582860161198c565b9150509250929050565b7f4e487b7100000000000000000000000000000000000000000000000000000000600052602260045260246000fd5b60006002820490506001821680611e2057607f821691505b60208210811415611e3457611e33611dd9565b5b50919050565b7f4552433732313a20617070726f76656420717565727920666f72206e6f6e657860008201527f697374656e7420746f6b656e0000000000000000000000000000000000000000602082015250565b6000611e96602c83611806565b9150611ea182611e3a565b604082019050919050565b60006020820190508181036000830152611ec581611e89565b9050919050565b7f4552433732313a20617070726f76616c20746f2063757272656e74206f776e6560008201527f7200000000000000000000000000000000000000000000000000000000000000602082015250565b6000611f28602183611806565b9150611f3382611ecc565b604082019050919050565b60006020820190508181036000830152611f5781611f1b565b9050919050565b7f4552433732313a20617070726f76652063616c6c6572206973206e6f74206f7760008201527f6e6572206e6f7220617070726f76656420666f7220616c6c0000000000000000602082015250565b6000611fba603883611806565b9150611fc582611f5e565b604082019050919050565b60006020820190508181036000830152611fe981611fad565b9050919050565b7f4552433732313a207472616e736665722063616c6c6572206973206e6f74206f60008201527f776e6572206e6f7220617070726f766564000000000000000000000000000000602082015250565b600061204c603183611806565b915061205782611ff0565b604082019050919050565b6000602082019050818103600083015261207b8161203f565b9050919050565b7f4552433732313a206f776e657220717565727920666f72206e6f6e657869737460008201527f656e7420746f6b656e0000000000000000000000000000000000000000000000602082015250565b60006120de602983611806565b91506120e982612082565b604082019050919050565b6000602082019050818103600083015261210d816120d1565b9050919050565b7f4552433732313a2062616c616e636520717565727920666f7220746865207a6560008201527f726f206164647265737300000000000000000000000000000000000000000000602082015250565b6000612170602a83611806565b915061217b82612114565b604082019050919050565b6000602082019050818103600083015261219f81612163565b9050919050565b7f4552433732314d657461646174613a2055524920717565727920666f72206e6f60008201527f6e6578697374656e7420746f6b656e0000000000000000000000000000000000602082015250565b6000612202602f83611806565b915061220d826121a6565b604082019050919050565b60006020820190508181036000830152612231816121f5565b9050919050565b7f4552433732313a206f70657261746f7220717565727920666f72206e6f6e657860008201527f697374656e7420746f6b656e0000000000000000000000000000000000000000602082015250565b6000612294602c83611806565b915061229f82612238565b604082019050919050565b600060208201905081810360008301526122c381612287565b9050919050565b7f4552433732313a207472616e736665722066726f6d20696e636f72726563742060008201527f6f776e6572000000000000000000000000000000000000000000000000000000602082015250565b6000612326602583611806565b9150612331826122ca565b604082019050919050565b6000602082019050818103600083015261235581612319565b9050919050565b7f4552433732313a207472616e7366657220746f20746865207a65726f2061646460008201527f7265737300000000000000000000000000000000000000000000000000000000602082015250565b60006123b8602483611806565b91506123c38261235c565b604082019050919050565b600060208201905081810360008301526123e7816123ab565b9050919050565b7f4e487b7100000000000000000000000000000000000000000000000000000000600052601160045260246000fd5b6000612428826118b6565b9150612433836118b6565b925082821015612446576124456123ee565b5b828203905092915050565b600061245c826118b6565b9150612467836118b6565b9250827fffffffffffffffffffffffffffffffffffffffffffffffffffffffffffffffff0382111561249c5761249b6123ee565b5b828201905092915050565b7f4552433732313a20617070726f766520746f2063616c6c657200000000000000600082015250565b60006124dd601983611806565b91506124e8826124a7565b602082019050919050565b6000602082019050818103600083015261250c816124d0565b9050919050565b7f4552433732313a207472616e7366657220746f206e6f6e20455243373231526560008201527f63656976657220696d706c656d656e7465720000000000000000000000000000602082015250565b600061256f603283611806565b915061257a82612513565b604082019050919050565b6000602082019050818103600083015261259e81612562565b9050919050565b600081519050919050565b600082825260208201905092915050565b60006125cc826125a5565b6125d681856125b0565b93506125e6818560208601611817565b6125ef8161184a565b840191505092915050565b600060808201905061260f600083018761194b565b61261c602083018661194b565b6126296040830185611a61565b818103606083015261263b81846125c1565b905095945050505050565b6000815190506126558161176c565b92915050565b60006020828403121561267157612670611736565b5b600061267f84828501612646565b91505092915050565b7f4552433732313a206d696e7420746f20746865207a65726f2061646472657373600082015250565b60006126be602083611806565b91506126c982612688565b602082019050919050565b600060208201905081810360008301526126ed816126b1565b9050919050565b7f4552433732313a20746f6b656e20616c7265616479206d696e74656400000000600082015250565b600061272a601c83611806565b9150612735826126f4565b602082019050919050565b600060208201905081810360008301526127598161271d565b905091905056fea26469706673582212205257a2950e77064f3be3bb76c0c5894d75475c23645ce1357c3b02918d8f711a64736f6c634300080b0033",
  "immutableReferences": {},
  "source": "// SPDX-License-Identifier: MIT\r\npragma solidity ^0.8.11;\r\n\r\nimport \"@openzeppelin/contracts/token/ERC721/ERC721.sol\";\r\nimport \"@openzeppelin/contracts/utils/Counters.sol\";\r\n\r\ncontract Interactive is ERC721{\r\n    using Counters for Counters.Counter;\r\n    Counters.Counter private _tokenIds;\r\n\r\n    mapping(uint256=>string) tokenurl;\r\n\r\n    constructor() ERC721(\"Skulls\", \"SKUL\"){}\r\n\r\n    function mint(string memory metadataURI) public payable{\r\n        _tokenIds.increment();\r\n\r\n        uint256 id = _tokenIds.current();\r\n        _safeMint(msg.sender, id);\r\n        tokenurl[id] = metadataURI;\r\n    }\r\n\r\n    function tokenURI(uint256 tokenId) public view virtual override returns (string memory) {\r\n        require(_exists(tokenId), \"ERC721Metadata: URI query for nonexistent token\");\r\n\r\n        return tokenurl[tokenId];\r\n    }\r\n\r\n}",
  "sourcePath": "C:\\Users\\User\\Documents\\source codes\\dapps\\InteractiveNFT\\contracts\\Interactive.sol",
  "compiler": {
    "name": "solc",
    "version": "0.8.11+commit.d7f03943.Emscripten.clang"
  },
  "schemaVersion": "3.4.3",
  "updatedAt": "2022-02-14T12:28:28.624Z",
  "networkType": "ethereum",
  "devdoc": {
    "kind": "dev",
    "methods": {
      "approve(address,uint256)": {
        "details": "See {IERC721-approve}."
      },
      "balanceOf(address)": {
        "details": "See {IERC721-balanceOf}."
      },
      "getApproved(uint256)": {
        "details": "See {IERC721-getApproved}."
      },
      "isApprovedForAll(address,address)": {
        "details": "See {IERC721-isApprovedForAll}."
      },
      "name()": {
        "details": "See {IERC721Metadata-name}."
      },
      "ownerOf(uint256)": {
        "details": "See {IERC721-ownerOf}."
      },
      "safeTransferFrom(address,address,uint256)": {
        "details": "See {IERC721-safeTransferFrom}."
      },
      "safeTransferFrom(address,address,uint256,bytes)": {
        "details": "See {IERC721-safeTransferFrom}."
      },
      "setApprovalForAll(address,bool)": {
        "details": "See {IERC721-setApprovalForAll}."
      },
      "supportsInterface(bytes4)": {
        "details": "See {IERC165-supportsInterface}."
      },
      "symbol()": {
        "details": "See {IERC721Metadata-symbol}."
      },
      "tokenURI(uint256)": {
        "details": "See {IERC721Metadata-tokenURI}."
      },
      "transferFrom(address,address,uint256)": {
        "details": "See {IERC721-transferFrom}."
      }
    },
    "version": 1
  },
  "userdoc": {
    "kind": "user",
    "methods": {},
    "version": 1
  }
}